:05000D00C1000108FE26
:10012000EF1FAC0670011E4C600B7D027CC700DC2B
:05013000FEDDFC80EB88
:0101350022A7
:07000600D288D2A8D2AF227C
:07013600D28AD2AAD2AF2247
:1001040012000612013675A0FF3000FD63A0FFE562
:0C0114000842A07FF47E0112012080ED63
:030003000200DC1C
:1000DC00C0E0C0D075D000C004C005C006C0077F0A
:1000EC00057E0012012020B202B200D007D006D04B
:0800FC0005D004D0D0D0E032A1
:030013000200A246
:1000A200C0E0C0D075D000C004C005C006C0077F44
:1000B200057E0012012020B3143000116308FFE511
:1000C2000825E0F50870037508016308FFD007D022
:0A00D20006D005D004D0D0D0E032F3
:03000000020016E5
:0C001600787FE4F6D8FD75812002005DC3
:10002200020104E493A3F8E493A34003F68001F2EF
:1000320008DFF48029E493A3F85407240CC8C333DF
:10004200C4540F4420C8834004F456800146F6DFAE
:10005200E4800B010204081020408090000DE47E31
:10006200019360BCA3FF543F30E509541FFEE493A3
:10007200A360010ECF54C025E060A840B8E493A36A
:10008200FAE493A3F8E493A3C8C582C8CAC583CA95
:10009200F0A3C8C582C8CAC583CADFE9DEE780BE4D
:0100120000ED
:00000001FF
