:0200F000C180CD
:1000BA00D3EF9400EE94004010007D027CC7DCFE72
:0900CA00DDFCEF1F70EA1E80E767
:0100D300220A
:0700E900D288D2A8D2AF2299
:1000D4001200E975A0FF3000FD63A0FF7FF47E01EC
:0500E4001200BA80F1DA
:0300030002009266
:10009200C0E0C0D075D000C004C005C006C0077F54
:1000A200057E001200BA20B202B200D007D006D0FC
:0800B20005D004D0D0D0E032EB
:03000000020006F5
:0C000600787FE4F6D8FD75812002004DE3
:100012000200D4E493A3F8E493A34003F68001F230
:1000220008DFF48029E493A3F85407240CC8C333EF
:10003200C4540F4420C8834004F456800146F6DFBE
:10004200E4800B01020408102040809000F0E47E5E
:10005200019360BCA3FF543F30E509541FFEE493B3
:10006200A360010ECF54C025E060A840B8E493A37A
:10007200FAE493A3F8E493A3C8C582C8CAC583CAA5
:10008200F0A3C8C582C8CAC583CADFE9DEE780BE5D
:0100F200000D
:00000001FF
