:0200E300C1005A
:1000BE00EF1FAC0670011E4C600B7D027CC700DC8E
:0500CE00FEDDFC80EBEB
:0100D300220A
:0700DC00C288D2A8D2AF22B6
:0800D4001200DC75A0FF80FEA4
:0300030002009266
:10009200C0E0C0D075D000C004C005C006C0077F54
:1000A200057E001200BE20B20363A0FF30B2FDD075
:0C00B20007D006D005D004D0D0D0E0323A
:03000000020006F5
:0C000600787FE4F6D8FD75812002004DE3
:100012000200D4E493A3F8E493A34003F68001F230
:1000220008DFF48029E493A3F85407240CC8C333EF
:10003200C4540F4420C8834004F456800146F6DFBE
:10004200E4800B01020408102040809000E3E47E6B
:10005200019360BCA3FF543F30E509541FFEE493B3
:10006200A360010ECF54C025E060A840B8E493A37A
:10007200FAE493A3F8E493A3C8C582C8CAC583CAA5
:10008200F0A3C8C582C8CAC583CADFE9DEE780BE5D
:0100E500001A
:00000001FF
